:100000000C942A000C9434000C9434000C943400AA
:100010000C9434000C9434000C9434000C94340090
:100020000C9434000C9434000C9434000C94340080
:100030000C9434000C9434000C9434000C94340070
:100040000C9434000C9434000C9434000C94340060
:100050000C94340011241FBECFE5D4E0DEBFCDBF29
:100060000E9436000C94B0010C940000DF93CF93F3
:10007000CDB7DEB70E946D010E94950185E50E9413
:10008000830180E090E0CF91DF910895DF93CF93DB
:100090000F92CDB7DEB78983EDE2F0E08981817000
:1000A0008170982F9295907F80818F7E892B80839D
:1000B0000F90CF91DF910895DF93CF930F92CDB73B
:1000C000DEB78983EDE2F0E0898181708170982F3D
:1000D0009295990F990F907C80818F7B892B8083DB
:1000E0000F90CF91DF910895DF93CF930F92CDB70B
:1000F000DEB78983EDE2F0E089818170982F9795D2
:100100009927979580818F77892B80830F90CF9146
:10011000DF910895DF93CF930F92CDB7DEB7898338
:10012000EDE2F0E0898181708170982F9295990FAE
:10013000907E80818F7D892B80830F90CF91DF917E
:100140000895DF93CF9300D00F92CDB7DEB78983A8
:100150008981282F30E03B832A838A819B818330E9
:10016000910509F457C02A813B81243031057CF484
:100170008A819B818130910569F12A813B812230FE
:100180003105C4F58A819B810097A1F082C02A8144
:100190003B812530310509F45DC08A819B81853022
:1001A00091050CF447C02A813B812630310509F4C2
:1001B00061C06FC0EEE2F0E0808181608083EDE29B
:1001C000F0E080818E7F8083EDE2F0E080818D7FA2
:1001D00080835FC0EEE2F0E080818E7F8083EDE27D
:1001E000F0E080818E7F8083EDE2F0E080818D7F82
:1001F00080834FC0EEE2F0E0808181608083EDE299
:10020000F0E080818E7F8083EDE2F0E0808182608B
:1002100080833FC0EEE2F0E080818E7F8083EDE25C
:10022000F0E0808181608083EDE2F0E080818D7F6D
:1002300080832FC0EEE2F0E0808181608083EDE278
:10024000F0E080818E7F8083EDE2F0E0808182604B
:1002500080831FC0EEE2F0E080818E7F8083EDE23C
:10026000F0E080818E7F8083EDE2F0E0808182602B
:1002700080830FC0EEE2F0E080818E7F8083EDE22C
:10028000F0E0808181608083EDE2F0E08081826037
:1002900080830F900F900F90CF91DF910895DF939F
:1002A000CF93CDB7DEB7EEE2F0E080818068808347
:1002B000CF91DF910895DF93CF930F92CDB7DEB743
:1002C0001982EEE2F0E08081881F8827881F8983E9
:1002D00089810F90CF91DF910895DF93CF93CDB7B0
:1002E000DEB781E00E94460080E00E94740085E055
:1002F0000E94A10081E00E945C0081E00E948A00CF
:10030000CF91DF910895DF93CF930F92CDB7DEB7F2
:100310008983EFE2F0E0898180830E945B0188237A
:10032000E1F30F90CF91DF910895DF93CF93CDB795
:10033000DEB7E7E3F0E0808180688083E7E3F0E008
:10034000808180628083E7E3F0E080818F7B80831F
:10035000E7E3F0E0808180618083CF91DF910895B1
:04036000F894FFCF3F
:00000001FF
